:100000009AC600000C948C1D0C94611D0C94361D36
:100010000C940B1D0C94E01C0C94B51C0C948A1CC5
:100020000C945F1CB9C60000B7C60000B5C600003E
:10003000B3C60000B1C60000AFC600000C94984ED5
:10004000ABC600000C94CA280C946728A5C6000013
:10005000A3C60000A1C600009FC600000C94151C9A
:100060009BC600000C94081B0C94DF1A95C6000078
:1000700093C6000091C600008FC600008DC6000028
:100080000C9493300C943C300C94E52F85C6000002
:1000900083C6000081C600007FC600000C942B1EA2
:1000A0007BC6000079C600000C94AA2D0C948E2FFC
:1000B0000C94703271C600006FC600000C94152FAE
:1000C0000C949C2E0C94232E67C6000065C600007D
:1000D00063C6000061C600005FC600005DC6000088
:1000E0005BC60000C057EF57F85727583058645880
:1000F0006D587658B059B559BA59C459CE59475A5E
:10010000D859E059E859F259FC59065A155A1F5A5C
:10011000475A295A335A3D5A2D118711FE11691237
:100120009B120A13DA135F14B314EC145D15C8158F
:100130009C16A816B916FC163E1793171718CD175C
:100140003D1A401A2F1A331A391A771A441A481AC4
:100150004E1A521A561A5C1A601A641A771A6A1AD8
:100160006E1A721A051ECF1DD71DE31DF01D111E3C
:100170001E1E212333238A239D23202433249524E8
:10018000002500000A0B02090C0D0E0807030401EC
:10019000000000000000000000000000000000005F
:1001A000000000000000000000000000000012112C
:1001B000100000000000000000000000000000002F
:1001C00000000000000000000A3D3D3D436F6D6DE2
:1001D000616E642048656C703D3D3D0A0A416C6C5F
:1001E00020636F6D6D616E64732061726520736949
:1001F0006E676C652063686172616374657220610B
:100200006E642061726520636F6E636174656E61F8
:1002100074656420776974682074686569722070F9
:100220006172616D6574657273200A776974686FB5
:100230007574207370616365732E20536F6D652034
:10024000706172616D6574657273206172652062A0
:10025000696E61727920616E642063616E6E6F7485
:1002600020626520656E7465726564207468726FC3
:100270007567682074686973200A70726F6D707496
:1002800020627920636F6E76656E74696F6E616C43
:10029000206D65616E732E200A53796E7461783A11
:1002A00020203C636F6D6D616E643E2B3C7061720B
:1002B000616D65746572313E2B3C706172616D6574
:1002C000746572323E2B3C706172616D657465724B
:1002D0004E3E0A0A3D3D3D4C697374206F662043D3
:1002E0006F6D6D616E64733D3D3D0A0A41202D20A6
:1002F000446973706C61797320333120627974655D
:1003000073206F662063757272656E7453746174C6
:1003100075732076616C75657320696E2062696EF5
:1003200061727920286C6976652064617461290A9C
:1003300042202D204275726E2063757272656E7454
:10034000206D617020616E6420636F6E6669675016
:100350006167652076616C75657320746F206565D3
:1003600070726F6D0A43202D205465737420434FC3
:100370004D20706F72742E20205573656420627951
:100380002054756E657273747564696F20746F2084
:10039000736565207768657468657220616E2045B5
:1003A0004355206973206F6E206120676976656E02
:1003B0002073657269616C200A20202020706F72A2
:1003C000742E2052657475726E7320612062696E9E
:1003D000617279206E756D6265722E0A4C202D2037
:1003E000446973706C617973206D6170207061670E
:1003F000652028616B61207461626C6529206F72D1
:1004000020636F6E666967506167652076616C7501
:1004100065732E2020557365205020746F2063680B
:10042000616E6765207061676520286E6F74200AB1
:1004300020202020657665727920706167652069CB
:10044000732061206D6170290A4E202D2050726941
:100450006E74206E6577206C696E652E0A50202DB3
:10046000205365742063757272656E7420706167C5
:10047000652E202053796E7461783A2020502B3CF1
:10048000706167654E756D6265723E0A52202D205F
:1004900053616D65206173204120636F6D6D616EE6
:1004A000640A53202D20446973706C61792073694C
:1004B000676E6174757265206E756D6265720A5142
:1004C000202D2053616D65206173205320636F6D73
:1004D0006D616E640A56202D20446973706C6179D9
:1004E000206D6170206F7220636F6E666967506166
:1004F00067652076616C75657320696E2062696E30
:100500006172790A57202D20536574206F6E652023
:100510006279746520696E206D6170206F7220634E
:100520006F6E666967506167652E2020457870653B
:100530006374732062696E61727920706172616D9B
:1005400065746572732E200A2020202053796E7402
:1005500061783A2020572B3C6F66667365743E2B9A
:100560003C6E6577627974653E0A74202D20536570
:10057000742063616C6962726174696F6E20766168
:100580006C7565732E2020457870656374732062E6
:10059000696E61727920706172616D6574657273E4
:1005A0002E20205461626C6520696E646578206934
:1005B000732065697468657220302C200A20202021
:1005C00020312C206F7220322E202053796E7461DE
:1005D000783A2020742B3C74626C655F6964783EC5
:1005E0002B3C6E657756616C7565313E2B3C6E65B4
:1005F0007756616C7565323E2B3C6E657756616C43
:1006000075654E3E0A5A202D20446973706C6179DD
:100610002063616C6962726174696F6E2076616CCF
:100620007565730A54202D20446973706C61797369
:100630002032353620746F6F7468206C6F672065C8
:100640006E747269657320696E2062696E61727979
:100650000A72202D20446973706C617973203235E1
:100660003620746F6F7468206C6F6720656E7472CB
:100670006965730A3F202D20446973706C6179733A
:1006800020746869732068656C702070616765000C
:1006900000002100240027002A002D003000330034
:1006A00001010000040107010A01000022002500E9
:1006B00028002B002E00310034000201000005014B
:1006C00008010B01000020002300260029002C0057
:1006D0002F00320000010000030106010901050599
:1006E0000505070508080808020202020A0A0808A8
:1006F00004040404010101010101010103030303D6
:1007000003030303040707070C0C0C0C0C0C0C0C64
:100710000202020206060606060606060B0B0B0B75
:100720000B0B0B0B0102102020080810204010209A
:1007300040800201020108040201010204081020A5
:1007400040808040201008040201800402018040A3
:10075000201008040201080402010102040810200C
:100760004080010204081020408020202020000A40
:100770005061676520686173206E6F7420626565E3
:100780006E20696D706C656D656E74656420796549
:10079000742E204368616E676520746F20616E6FF0
:1007A0007468657220706167652E000A566F6C75FB
:1007B0006D657472696320456666696369616E631D
:1007C00079204D6170000A50616765203120436FC8
:1007D0006E666967000A49676E6974696F6E204DBD
:1007E0006170000A50616765203220436F6E666950
:1007F00067000A4169722F4675656C205261746901
:100800006F204D6170000A50616765203320436F8F
:100810006E666967000A50616765203420436F6E19
:10082000666967000A426F6F7374204D6170000A39
:10083000565654204D61700000000000003E5B4F92
:100840005B3E3E6B4F6B3E1C3E7C3E1C183C7E3C30
:10085000181C577D571C1C5E7F5E1C00183C18003E
:10086000FFE7C3E7FF0018241800FFE7DBE7FF30CE
:10087000483A060E2629792926407F050507407F3C
:1008800005253F5A3CE73C5A7F3E1C1C08081C1CAF
:100890003E7F14227F22145F5F005F5F06097F01A5
:1008A0007F006689956A606060606094A2FFA29490
:1008B00008047E040810207E201008082A1C08085E
:1008C0001C2A08081E101010100C1E0C1E0C3038AC
:1008D0003E3830060E3E0E06000000000000005FAD
:1008E00000000007000700147F147F14242A7F2AC9
:1008F000122313086462364956205000080703008B
:10090000001C2241000041221C002A1C7F1C2A08D6
:10091000083E080800807030000808080808000039
:1009200060600020100804023E5149453E00427FAD
:10093000400072494949462141494D331814127FFC
:100940001027454545393C4A49493141211109079C
:100950003649494936464949291E0000140000001D
:1009600040340000000814224114141414140041EF
:1009700022140802015909063E415D594E7C1211AC
:10098000127C7F494949363E414141227F414141E4
:100990003E7F494949417F090909013E414151735F
:1009A0007F0808087F00417F41002040413F017FD0
:1009B000081422417F404040407F021C027F7F0498
:1009C00008107F3E4141413E7F090909063E4151E1
:1009D000215E7F09192946264949493203017F01D1
:1009E000033F4040403F1F2040201F3F4038403FD2
:1009F000631408146303047804036159494D4300E8
:100A00007F4141410204081020004141417F04021E
:100A100001020440404040400003070800205454B5
:100A200078407F2844443838444444283844442893
:100A30007F385454541800087E090218A4A49C78E6
:100A40007F0804047800447D40002040403D007F42
:100A50001028440000417F40007C047804787C0822
:100A60000404783844444438FC18242418182424F6
:100A700018FC7C08040408485454542404043F44DB
:100A8000243C4040207C1C2040201C3C4030403C0A
:100A900044281028444C9090907C4464544C44006A
:100AA00008364100000077000000413608000201CE
:100AB0000204023C2623263C1EA1A161123A4040BA
:100AC000207A385454555921555579412254547837
:100AD00042215554784020545579400C1E527212D0
:100AE0003955555559395454545939555454580059
:100AF00000457C410002457D420001457C407D125D
:100B000011127DF0282528F07C54554500205454BE
:100B10007C547C0A097F4932494949323A44444469
:100B20003A324A4848303A4141217A3A42402078A4
:100B3000009DA0A07D3D4242423D3D4040403D3CA5
:100B400024FF2424487E4943662B2FFC2F2BFF09CA
:100B500029F620C0887E09032054547941000044BE
:100B60007D413048484A32384040227A007A0A0AA9
:100B7000727D0D19317D2629292F2826292929261C
:100B800030484D4020380808080808080808382F61
:100B900010C8ACBA2F102834FA00007B00000814EB
:100BA0002A142222142A1408AA005500AAAA55AA17
:100BB00055AA000000FF00101010FF00141414FFCD
:100BC000001010FF00FF1010F010F0141414FC00BF
:100BD0001414F700FF0000FF00FF1414F404FC14C9
:100BE0001417101F10101F101F1414141F001010C2
:100BF00010F0000000001F101010101F1010101037
:100C0000F010000000FF101010101010101010FF56
:100C100010000000FF140000FF00FF00001F10176D
:100C20000000FC04F414141710171414F404F40056
:100C300000FF00F714141414141414F700F714141C
:100C400014171410101F101F141414F4141010F0A3
:100C500010F000001F101F0000001F14000000FC17
:100C6000140000F010F01010FF10FF141414FF1403
:100C70001010101F00000000F010FFFFFFFFFFF03A
:100C8000F0F0F0F0FFFFFF0000000000FFFF0F0F8B
:100C90000F0F0F3844443844FC4A4A4A347E02025B
:100CA0000606027E027E0263554941633844443C95
:100CB00004407E201E2006027E020299A5E7A59927
:100CC0001C2A492A1C4C7201724C304A4D4D30305E
:100CD00048784830BC625A463D3E494949007E0149
:100CE00001017E2A2A2A2A2A44445F444440514A68
:100CF000444040444A51400000FF0103E080FF00AF
:100D00000008086B6B083612362436060F090F06EA
:100D1000000018180000001010003040FF01010012
:100D20001F01011E00191D1712003C3C3C3C000035
:100D300000000000296D11241FBECFEFD1E2DEBFFD
:100D4000CDBF00E00CBF14E0A0E0B2E0EEEFFFED9D
:100D500000E00BBF02C007900D92AC3BB107D9F782
:100D600022E1ACEBB4E001C01D92AA3FB207E1F76B
:100D700016E0CBE9D6E000E006C021970109802FFC
:100D8000FE010E941E6ECA39D10780E00807A9F74C
:100D90000E940F560C94FD6F33C9CF92DF92EF92F1
:100DA000FF920F931F93CF93DF93E0910B11F0917C
:100DB0000C1182E08083E0910711F09108111082FC
:100DC000E0910911F0910A1180E1808310921311D2
:100DD000E0910F11F091101186E08083E0910D11E8
:100DE000F0910E11808180618083E0910D11F0916E
:100DF0000E11808188608083E0910D11F0910E11B9
:100E0000808180688083E0910D11F0910E118081C6
:100E10008F7D808360E18FEC9EE00E949C5460E1B6
:100E20008FEB9EE00E949C5460E18AE99BE00E9467
:100E30009C5468E087ED9AE00E949C5468E08BEC3B
:100E40009AE00E949C5403E010E0A801435051092D
:100E50009A0157FF02C0215F3F4FA4E035952795C7
:100E6000AA95E1F7319521953109215F3F4F220F76
:100E7000331FE091D10EF091D20EE20FF31F4F70AD
:100E80005527C081D181C40FD51FC8010E947A396E
:100E900088830F5F1F4F033021E01207B1F60091E6
:100EA000D30E1091D40EC3E0D1E0CE010E947A3966
:100EB000E4E68E9FC0011124F801819391938F0184
:100EC0002196C331F1E0DF0781F70091D50E109133
:100ED000D60EC3E1D1E0CE010E947A3990E0F8014C
:100EE000819391938F012196C332F1E0DF0799F747
:100EF0000BED1EE0C3E2D1E0CE010E947A39F80189
:100F000081938F012196C336F1E0DF07A9F705E64B
:100F100011E0A801455651409A0157FF02C0215FD8
:100F20003F4FE4E035952795EA95E1F73195219516
:100F30003109215F3F4F220F331FE091C10EF09125
:100F4000C20EE20FF31F4F705527C081D181C40F2D
:100F5000D51FC8010E947A3988830F5F1F4F05365D
:100F600022E01207B1F60091C30E1091C40EC5E63F
:100F7000D2E0CE010E947A39E4E68E9FC0011124AE
:100F8000F801819391938F012196C537F2E0DF0735
:100F900081F70091C50E1091C60EC5E7D2E0CE01D3
:100FA0000E947A3990E0F801819391938F01219604
:100FB000C538F2E0DF0799F70CE11FE0C5E8D2E0A1
:100FC000CE010E947A39F80181938F012196C53CA8
:100FD000F2E0DF07A9F707EC12E0A801475C5240F6
:100FE0009A0157FF02C0215F3F4F64E03595279576
:100FF0006A95E1F7319521953109215F3F4F220F25
:10100000331FE0919C0BF0919D0BE20FF31F4F708B
:101010005527C081D181C40FD51FC8010E947A39DC
:1010200088830F5F1F4F073C23E01207B1F6009142
:101030009E0B10919F0BC7ECD3E0CE010E947A3932
:10104000E4E68E9FC0011124F801819391938F01F2
:101050002196C73DF3E0DF0781F70091A00B1091C7
:10106000A10BC7EDD3E0CE010E947A3990E0F801E0
:10107000819391938F012196C73EF3E0DF0799F7A3
:101080000EE712E1C7EED3E0CE010E947A39F801F3
:1010900081938F012196C732F4E0DF07A9F70AE3B5
:1010A0001BE0C7E2D4E0CE010E947A39F8018193B7
:1010B0008F012196C736F4E0DF07A9F700E010E0C2
:1010C000C80117FD079623E0959587952A95E1F7C6
:1010D0009195819591090796EC01CC0FDD1F780160
:1010E00027E0E222FF24E091D90AF091DA0AEC0F1E
:1010F000FD1FC080D180CE0CDF1CC80187599B4FDB
:101100000E947A39F60180838091CD0A9091CE0AAF
:10111000C80FD91F88819981EC01CE0DDF1DC80150
:1011200085549B4F0E947A3988830F5F1F4F00348C
:10113000110531F6E090DB0AF090DC0A0091CF0A4D
:101140001091D00AC9EAD4E0CE010E947A39F4E6BF
:101150008F9FC0011124F701819391937F01CE01EC
:101160008E5A9F4F0E947A39F4E68F9FC001112456
:10117000F801819391938F012196C13BF4E0DF0741
:1011800019F70091DD0A1091DE0AE090D10AF09083
:10119000D20AC1EBD4E0CE010E947A3990E0F80186
:1011A000819391938F01CE018E5A9F4F0E947A397D
:1011B00090E0F701819391937F012196C93BF4E080
:1011C000DF0749F788E08093880B94E09093890BC0
:1011D00027E33FE030938B0B20938A0B23E33FE020
:1011E00030938D0B20938C0B80937A0B9AE0909325
:1011F0007B0B2FED3EE030937D0B20937C0B2BE39C
:101200003FE030937F0B20937E0B8093920C96E00F
:101210009093930C26E43FE03093950C2093940C2C
:101220002DE832E13093970C2093960C8093A70B16
:101230009093A80B43E952E15093AA0B4093A90B5A
:101240003093AC0B2093AB0B8093B50B29E020932C
:10125000B60B22EA32E13093B80B2093B70B29E9A1
:1012600032E13093BA0B2093B90B8093B10E909377
:10127000B20E82E59FE09093B40E8093B30E8CE49F
:101280009FE09093B60E8093B50ECFEBCC2EC4E0CA
:10129000DC2ED0ECED2ED6E0FD2E01EC18E0CFEFE9
:1012A000DDE0CE010E947A39F60181936F01CE0113
:1012B00092500E947A39F70181937F01CE019450B8
:1012C0000E947A39F80181938F012196CF3FFFE088
:1012D000DF0739F78091EA0E833009F44DC108F039
:1012E0004DC0813009F4A9C008F0F9C088E08093AE
:1012F000BD0489E08093BC048BE0809344108AE0B5
:10130000809343108CE08093411096E090934610B8
:1013100097E090934810809345108DE0809347109C
:101320008EE08093421082E08093EA1083E0809305
:10133000CB0F86E38093BE0487E38093751088E328
:101340008093C00889E38093BF068AE38093C10A33
:101350008EE280935F0F8FE28093BA0F90E19093BB
:10136000F20A91E19093010B8093EB1084E080935B
:10137000630F81E38093EE1083E1AEC08A3009F4FD
:101380004CC108F053C0893009F015C29BE090931E
:10139000BD049AE09093BC048093441088E080934D
:1013A00043109CE09093411087E28093461089E2BD
:1013B000809348108AE2809345108BE28093471017
:1013C00082E28093421083E18093EA1082E180936D
:1013D000CB0F88E38093BE048BE38093751086E384
:1013E0008093C00887E38093BF0689E38093C10A96
:1013F0008AE38093C40A80E38093CA1181E38093D7
:10140000EE1082E080935F0F23E02093BA0F25E275
:101410002093630F20E12093F20A21E12093010B36
:101420002FE22093EB1090935E0F56C0843109F4A5
:1014300048C18E3109F45DC1BEC188E08093BD040E
:1014400089E08093BC048AE0809344108BE0809311
:1014500043108CE0809341108CE18093461088E12A
:101460008093481088E28093451084E2809347106F
:1014700082E28093421084E18093EA1085E18093B8
:10148000CB0F88E38093BE0489E38093751086E3D5
:101490008093C00887E38093BF068EE38093C10AE0
:1014A0008AE38093C40A80E38093CA1181E3809326
:1014B000EE108EE180935F0F8FE18093BA0F80E191
:1014C0008093F20A81E18093010B8FE28093EB100D
:1014D00084E08093630F82E08093CC0FAEC188E0FC
:1014E0008093BD0489E08093BC048AE0809344101B
:1014F0008BE0809343108CE0809341109CE19093AB
:10150000461098E19093481098E29093451094E229
:101510009093471092E29093421093E19093EA10D7
:1015200092E19093CB0F98E39093BE0499E390934C
:10153000751096E39093C00897E39093BF069EE3DF
:101540009093C10A9AE39093C40A90E39093CA11CE
:1015500091E39093EE1095E090935F0F97E0909356
:10156000BA0F94E09093630F90E19093F20A91E1A7
:101570009093010B93E44CC088E08093BD0489E014
:101580008093BC048AE0809344108BE080934310E6
:101590008CE08093411098E29093461096E29093ED
:1015A000481094E39093451092E39093471092E291
:1015B0009093421093E19093EA1092E19093CB0FB5
:1015C00098E39093BE0499E39093751096E39093FB
:1015D000C00897E39093BF069EE39093C10A9AE3F5
:1015E0009093C40A90E39093CA1191E39093EE1004
:1015F00095E090935F0F97E09093BA0F9DE29093E0
:10160000630F90E19093F20A91E19093010B9FE2B6
:101610009093EB1080935E0F5ECF94E09093BD04A7
:1016200095E09093BC0496E09093441097E09093DB
:10163000431098E09093411099E09093B90F8093F4
:10164000B80F8BE08093B70F88E1809346108CE150
:101650008093481084E28093451088E2809347107D
:1016600082E28093421082E18093EA1083E18093CA
:10167000CB0F88E38093BE0489E3809375108EE3DB
:101680008093B60F86E38093C00887E38093BF06FC
:101690008AE38093C10A8DE38093C40A80E3809338
:1016A000CA118CE38093B50F8BE38093B40F8AE269
:1016B0008093630F8FE28093EB1081E38093EE10B1
:1016C0000ACF84E08093B30F85E08093B20F86E069
:1016D0008093B10F87E08093B00F82E38093AF0FC8
:1016E00084E38093AE0F85E48093B40F84E4809309
:1016F000B50F88E08093BD0489E08093BC048AE044
:10170000809344108BE0809343108CE080934110D1
:1017100088E28093461086E28093481082E38093AB
:10172000451084E38093471082E28093421083E166
:101730008093EA1082E18093CB0F81E18093CA0FFE
:1017400088E38093BE0489E38093751086E38093D9
:10175000C00887E38093BF068EE38093C10A8FE3BE
:101760008093AD0F8AE38093C40A80E38093CA110B
:1017700091E39093EE1085E080935F0F8DE280936C
:10178000630F84E08093AC0F86E08093AB0F87E01B
:101790008093E30A8BE28093AA0F8FE28093A90FD4
:1017A0009093A80F93E39093A70F95E39093A60FC0
:1017B0008093EB1042C088E08093BD0489E0809361
:1017C000BC048AE0809344108BE0809343108CE04B
:1017D000809341108CE18093461088E180934810FB
:1017E00088E28093451084E28093471082E28093E0
:1017F000421084E18093EA1085E18093CB0F88E367
:101800008093BE0489E38093751086E38093C008BB
:1018100087E38093BF068EE38093C10A8AE38093B7
:10182000C40A80E38093CA118FE28093EB1084E0B6
:101830008093630F81E38093EE108091AE128F73DB
:1018400011F080935E0F80915B0F982F9E7721F0AF
:1018500086958F7380931B0F8091EB0E8F7311F021
:101860008093EE1061E0809146100E94951B61E02C
:10187000809148100E94951B61E0809145100E9464
:10188000951B61E0809147100E94951B61E080915B
:1018900042100E94951B61E08091BD040E94951B3F
:1018A00061E08091BC040E94951B61E0809144102E
:1018B0000E94951B61E0809143100E94951B61E09E
:1018C000809141100E94951B61E08091EE100E9472
:1018D000951B61E080915F0F0E94951B61E08091F4
:1018E000BA0F0E94951B61E08091630F0E94951BC7
:1018F00061E080911B0F0E94951B61E08091EB10CD
:101900000E94951B8091BD0490E0FC01E252F94FCA
:10191000E491F0E0EE0FFF1FE655F94F2591349169
:101920003093A50F2093A40FFC01EC5DF84FE491D8
:10193000E093A30F8091BC0490E0FC01E252F94FC8
:10194000E491F0E0EE0FFF1FE655F94F2591349139
:101950003093A20F2093A10FFC01EC5DF84FE491AE
:10196000E093A00F8091441090E0FC01E252F94F07
:10197000E491F0E0EE0FFF1FE655F94F2591349109
:1019800030939F0F20939E0FFC01EC5DF84FE49184
:10199000E0939D0F8091431090E0FC01E252F94FDB
:1019A000E491F0E0EE0FFF1FE655F94F25913491D9
:1019B00030939C0F20939B0FFC01EC5DF84FE4915A
:1019C000E0939A0F8091411090E0FC01E252F94FB0
:1019D000E491F0E0EE0FFF1FE655F94F25913491A9
:1019E0003093990F2093980FFC01EC5DF84FE49130
:1019F000E093970F8091461090E0FC01E252F94F7E
:101A0000E491F0E0EE0FFF1FE655F94F2591349178
:101A10003093960F2093950FFC01EC5DF84FE49105
:101A2000E093940F8091481090E0FC01E252F94F4E
:101A3000E491F0E0EE0FFF1FE655F94F2591349148
:101A40003093930F2093920FFC01EC5DF84FE491DB
:101A5000E093910F8091451090E0FC01E252F94F24
:101A6000E491F0E0EE0FFF1FE655F94F2591349118
:101A70003093900F20938F0FFC01EC5DF84FE491B1
:101A8000E0938E0F8091471090E0FC01E252F94FF5
:101A9000E491F0E0EE0FFF1FE655F94F25913491E8
:101AA00030938D0F20938C0FFC01EC5DF84FE49187
:101AB000E0938B0F8091421090E0FC01E252F94FCD
:101AC000E491F0E0EE0FFF1FE655F94F25913491B8
:101AD00030938A0F2093890FFC01EC5DF84FE4915D
:101AE000E093880F60E0809175100E94951B60E084
:101AF0008091C10A0E94951B60E08091AD0F0E9409
:101B0000951B60E08091BE040E94951B60E080916F
:101B1000C0080E94951B60E08091BF060E94951B43
:101B200060E08091C40A0E94951B60E08091EA10F9
:101B30000E94951B60E08091CB0F0E94951B60E096
:101B40008091CA0F0E94951B62E08091CC0F0E9489
:101B5000951B8091BA12837011F062E001C060E0C1
:101B600080915E0F0E94951B61E0809175100E942C
:101B7000661B60E08091BE040E94661B8091210F6D
:101B800082FF06C01092170281E08093491005C0C1
:101B900081E0809317021092491060914910809162
:101BA00046100E94661B60914910809148100E9467
:101BB000661B60914910809145100E94661B6091E0
:101BC0004910809147100E94661B609149108091D6
:101BD00042100E94661B60E08091BD040E94661B5B
:101BE00060E08091BC040E94661B60E0809144101C
:101BF0000E94661B60E0809143100E94661B60E0BB
:101C0000809141100E94661B61E08091EE100E945D
:101C1000661B0E946C2C80910F1290911012909371
:101C20001412809313121092671010926610109283
:101C30009100109295001092940018BA10929000A2
:101C400094E09093910010927C0C10927B0C109277
:101C5000680C1092670C1092540C1092530C109256
:101C60002C0C10922B0C10927D0C1092690C10927F
:101C7000550C1092210110922501109224011ABADC
:101C80001092200183E0809321011092D00B1092DA
:101C9000CF0B1092E30B1092E20B1092F60B109206
:101CA000F50B1092D10B1092E40B1092F70B1092DF
:101CB000A1001092A5001092A40019BA1092A000E1
:101CC0009093A1001092090C1092080C1092400CF5
:101CD00010923F0C10920A0C1092410C1092B1001D
:101CE00083E88093B20017BA81E08093700010926D
:101CF000B0008091B10085608093B1008091B10007
:101D00008D7F8093B10080917200877F80937200F5
:101D100080916E0B282F277030E02330310509F4B5
:101D20009FC00CF074C02130310509F488C0223006
:101D3000310509F047C18AE080931D0B88E080934C
:101D40001C0B2EE43BE030931F0B20931E0B28E569
:101D50003BE03093210B2093200B90932D0B80932D
:101D60002C0B86E69BE090932F0B80932E0B8AE63C
:101D70009BE09093310B8093300B80915F0F90E04C
:101D8000FC01E252F94FE491F0E0EE0FFF1FE6553F
:101D9000F94F259134913093601020935F10FC012E
:101DA000EC5DF84FE491E09361108091BA0F90E000
:101DB000FC01E252F94FE491F0E0EE0FFF1FE6550F
:101DC000F94F2591349130935D1020935C10FC0104
:101DD000EC5DF84FE491E0935E102091AD1280E24B
:101DE000289F90011124032E000C440B550B60E436
:101DF00072E48FE090E00E94496E30932B0B2093A9
:101E00002A0B80917200886080937200DBC02430BE
:101E1000310509F4A2C02530310509F0D3C02AE00C
:101E200020930F0B2AE33BE03093110B2093100B10
:101E300028E53BE03093130B2093120BA0C0809158
:101E40006F0B90E020912612309127122817390746
:101E50000CF0B8C061E080915F0F0E94661BB2C0B9
:101E60008AE080930F0B88E080930E0B2AE33BE01F
:101E70003093110B2093100B28E53BE03093130BAC
:101E80002093120B90932D0B80932C0B86E69BE0F6
:101E900090932F0B80932E0B8AE69BE09093310B4F
:101EA0008093300B80915F0F90E0FC01E252F94F7C
:101EB000E491F0E0EE0FFF1FE655F94F25913491C4
:101EC0003093601020935F10FC01EC5DF84FE491BB
:101ED000E09361108091BA0F90E0FC01E252F94F5B
:101EE000E491F0E0EE0FFF1FE655F94F2591349194
:101EF00030935D1020935C10FC01EC5DF84FE49191
:101F0000E0935E102091AD12E0E22E9F900111242B
:101F1000032E000C440B550B60E472E48FE090E05C
:101F20000E94496E30932B0B20932A0BBA01A90112
:101F30006627772780EA91E10E94DD542091B5124F
:101F40004091B4126091B31280EA91E10E945E2048
:101F500080EA91E10E942B5535C02AE02093E50AE2
:101F600028E02093E40A24E43BE03093E70A20933E
:101F7000E60A28E53BE03093E90A2093E80A9093CB
:101F8000F40A22E63BE03093F60A2093F50A2AE6AB
:101F90003BE03093F80A2093F70A8695869586955C
:101FA000877048EE53E0849F9001859F300D112487
:101FB0003093030B2093020B0E946E441092090B86
:101FC0001092080B8091720B80FF06C010921804CB
:101FD00081E08093EC1005C081E08093180410929A
:101FE000EC106091EC108091EB100E94661B109237
:101FF0008100109285001092840016BA1092800021
:1020000084E0809381008091E30A90E0FC01E25239
:10201000F94FE491F0E0EE0FFF1FE655F94F2591DF
:10202000349130934D1020934C10FC01EC5DF84F2F
:10203000E491E0934E10EEEDF6E0E491F0E0EE0F67
:10204000FF1FE655F94F859194919093501080931E
:102050004F10E4E2F7E0E491E09351102091AB12CD
:10206000F0E22F9F90011124032E000C440B550B1E
:1020700070E4C72E72E4D72E7FE0E72EF12CC70163
:10208000B6010E94496E30934B1020934A10209164
:10209000AC1280E2289F90011124032E000C440B07
:1020A000550BC701B6010E94496E3093CA0A2093AE
:1020B000C90A80916F00846080936F0040914A103C
:1020C00050914B1060E070E084E592E10E94DD5495
:1020D00084E592E10E942B558091FD11811142C04F
:1020E000E091E111F091E21180819181A281B381AF
:1020F0008093E9119093EA11A093EB11B093EC1146
:10210000E091DF11F091E011408151816281738192
:102110004093ED115093EE116093EF117093F01115
:102120004091F9115091FA116091FB117091FC11DD
:10213000481759076A077B076CF04091F5115091D9
:10214000F6116091F7117091F81184179507A607A1
:10215000B70744F44093E9115093EA116093EB11EF
:102160007093EC1181E08093FD118091010F81FF4C
:102170001AC09091CC0F923049F0933049F08EEE16
:10218000890F843038F487E1891B05C080E003C0E3
:1021900081E001C08FEF43E050E06DE279E20E9400
:1021A000B71D109242128091F30EE4E68E9FC0019B
:1021B00011249093CC0E8093CB0E8091F60EF4E612
:1021C0008F9FC00111249093CE0E8093CD0E10925C
:1021D0000812109207121092061210924C121092CE
:1021E0004D1210929B1010929C1010929D10109204
:1021F0009E108091EA10EDEFE80FE33128F4F0E053
:10220000E95CFB4FC08101C0C0E0D091CB0FEEEF85
:10221000ED0FE43128F4F0E0ED5DFB4F108101C0DB
:1022200011E060E00E94951B60E08D2F0E94951BDD
:1022300060E08091CA0F0E94951BD091210FED2F75
:10224000E295EF70F0E0EC30F10508F015C5882755
:10225000E457FF4F8F4F0C941E6EE0912B0FF0E070
:1022600088E691E0BF010E94366E7B017093AD0E4F
:102270006093AC0E00912C0F10E0CF01801B910BEE
:102280009093E9108093E8108CE291E0E89F900130
:10229000E99F300DF89F300D1124032E000C440BE4
:1022A000550B60E472E48FE090E00E94496EC90132
:1022B000330FAA0BBB0B80939B1090939C10A093A1
:1022C0009D10B0939E101092B00E1092BB0FD801CB
:1022D000119697010E94266E9B01AC01A5E0BDE01E
:1022E0000E94DE6F609302027093030280930402E7
:1022F000909305028CEB9CE49093C90F8093C80FD8
:1023000081EC94E49093C70F8093C60FBBC42091D7
:10231000FF0E22952F70822F90E0959587959093D0
:10232000E9108093E8108091E8109091E910892BD2
:1023300031F481E090E09093E9108093E81060918F
:10234000E8107091E91088E691E00E94366E8B01EA
:102350007093AD0E6093AC0E30E040E050E065E06D
:102360007DE080E090E00E94496E20939B103093C6
:102370009C1040939D1050939E1080919B109091C3
:102380009C10A0919D10B0919E10B695A795979521
:10239000879580939B1090939C10A0939D10B09371
:1023A0009E101092B00E1092BB0F2BE337E0D801B5
:1023B0000E942C6E609302027093030280930402C9
:1023C0009093050284ED9DE49093C90F8093C80F0C
:1023D00082ED9BE49093660F8093650F89E696E407
:1023E00090938B0C80938A0CD0FD03C043E050E0A7
:1023F00002C042E050E064ED7DE459C4E0912B0F4F
:10240000F0E088E691E0BF010E94366E7B01709398
:10241000AD0E6093AC0E8FEF90E09093AF0E809373
:10242000AE0E8CE291E0E89F9001E99F300DF89F9D
:10243000300D1124032E000C440B550B60E472E4A4
:102440008FE090E00E94496EC901330FAA0BBB0BCD
:1024500080939B1090939C10A0939D10B0939E101E
:1024600081E493E090938610809385101092B00ED3
:1024700081E08093BB0F25E03DE0D7010E942C6EE8
:10248000609302027093030280930402909305020A
:1024900081E09CE49093C90F8093C80F84EE9BE485
:1024A0009093660F8093650F81EF96E490938B0C69
:1024B00080938A0CD0FD03C043E050E002C042E0AC
:1024C00050E061E07CE48C2F0E94B71D43E050E0B7
:1024D000CFC38CE390E09093AD0E8093AC0E10923E
:1024E000B00E1092BB0F8CE29DE0A3E0B0E08093B1
:1024F000020290930302A0930402B093050289E7BD
:1025000099E49093C90F8093C80F8DEE98E490934F
:10251000660F8093650F88ED95E490938B0C809304
:102520008A0CD0FD03C043E050E002C042E050E01E
:1025300069E779E4BCC384EB90E09093AD0E80939F
:10254000AC0E83E690E09093AF0E8093AE0E1092A7
:10255000B00E81E08093BB0F8BE498E9A5E0B0E07A
:102560008093020290930302A0930402B0930502A9
:102570000E94F01B6093670F7093680F8093690F40
:1025800090936A0F83E691E09093B5108093B41016
:1025900089E690E09093B7108093B6108FEA90E0B0
:1025A0009093B9108093B8108DE191E09093BB1097
:1025B0008093BA108CED95E0A0E0B0E080939B1082
:1025C00090939C10A0939D10B0939E1081E493E093
:1025D000909386108093851083EB9AE49093C90FB3
:1025E0008093C80F82E898E49093660F8093650FFC
:1025F0008BE495E490938B0C80938A0C41E050E03F
:1026000063EB7AE48C2F0E94B71D42E050E068E44F
:102610007AE430C38FE090E09093AD0E8093AC0EDF
:102620008CE090E09093B5108093B41082E190E03C
:102630009093B7108093B61081E290E09093B91018
:102640008093B81080E390E09093BB108093BA1011
:102650008FE390E09093BD108093BC108EE490E0E7
:102660009093BF108093BE1086E690E09093C110C7
:102670008093C0108CE690E09093C3108093C210BA
:102680008BE790E09093C5108093C4108AE890E0A7
:102690009093C7108093C61082EA90E09093C9107F
:1026A0008093C81081EB90E09093CB108093CA1078
:1026B00087EB90E09093CD108093CC1086EC90E067
:1026C0009093CF108093CE108EED90E09093D11028
:1026D0008093D0108DEE90E09093D3108093D21021
:1026E0008CEF90E09093D5108093D41082E091E02D
:1026F0009093D7108093D6108AE191E09093D910EF
:102700008093D81080E291E09093DB108093DA10F0
:1027100088E391E09093DD108093DC1087E491E0F2
:102720009093DF108093DE1086E591E09093E110A6
:102730008093E01085E691E09093E3108093E2109F
:102740008BE493ECA0E0B0E080930202909303024C
:10275000A0930402B093050289E190E09093AF0E3C
:102760008093AE0E1092B00E81E08093BB0F81EF8C
:1027700098E49093C90F8093C80F80E898E49093F1
:10278000660F8093650F82EC94E490938B0C80939A
:102790008A0CD0FD03C043E050E002C042E050E0AC
:1027A00061EF78E48C2F0E94B71D41E050E06CEBA4
:1027B00074E460C21092AD0E1092AC0E8EEA90E0FE
:1027C0009093B5108093B41082EC90E09093B71082
:1027D0008093B61086ED90E09093B9108093B81076
:1027E0008AEE90E09093BB108093BA1086E291E05D
:1027F0009093BD108093BC108AE391E09093BF103A
:102800008093BE108EE491E09093C1108093C0102D
:1028100082E691E09093C3108093C2108EE991E01C
:102820009093C5108093C41082EB91E09093C710F1
:102830008093C61086EC91E09093C9108093C810E5
:102840008AED91E09093CB108093CA108CE29DE0CA
:10285000A3E0B0E08093020290930302A0930402ED
:10286000B09305028DE090E09093AF0E8093AE0E92
:102870001092B00E1092BB0F86EB93E49093C90FA9
:102880008093C80F8BED9FE39093660F8093650F45
:1028900089E89EE390938B0C80938A0CD0FD03C053
:1028A00043E050E002C042E050E066EB73E48C2F5E
:1028B0000E94B71D41E050E069E27AE3DBC188E0A5
:1028C00090E09093AD0E8093AC0E8FEF90E09093DC
:1028D000AF0E8093AE0E1092841088E190E0A0E0DD
:1028E000B0E080939B1090939C10A0939D10B093A8
:1028F0009E1081E493E0909386108093851088E287
:1029000098E6A0E0B0E08093020290930302A093C7
:102910000402B09305021092B00E81E08093BB0FC9
:1029200082EE92E49093C90F8093C80F89ED9FE3E4
:102930009093660F8093650F84EA9DE390938B0CD0
:1029400080938A0CD0FD03C043E050E002C042E017
:1029500050E062EE72E48C2F0E94B71D43E050E01D
:1029600061E37EE387C18EE190E09093AD0E8093AA
:10297000AC0E86E996E8A1E0B0E080930202909365
:102980000302A0930402B09305021092B00E1092BD
:10299000BB0F8DEF90E49093C90F8093C80F87ED24
:1029A0009FE39093660F8093650F82E19DE3909380
:1029B0008B0C80938A0CD0FD03C043E050E002C032
:1029C00042E050E06DEF70E48C2F0E94B71D41E0B3
:1029D00050E068E27AE34EC18AE590E09093AD0E54
:1029E0008093AC0E83E690E09093AF0E8093AE0E92
:1029F0001092B00E81E08093BB0F8EE591E0909332
:102A0000B5108093B41084E690E09093B710809353
:102A1000B6108AEA90E09093B9108093B81088E1DC
:102A200091E09093BB108093BA1082EC93E9A4E0FC
:102A3000B0E08093020290930302A0930402B0934B
:102A400005028CED95E0A0E0B0E080939B109093A0
:102A50009C10A0939D10B0939E1081E493E09093FE
:102A60008610809385108AEF9FE39093C90F80931F
:102A7000C80F8AE79FE39093660F8093650F84EEFB
:102A80009BE390938B0C80938A0CD0FD0AC043E0AB
:102A900050E06AEF7FE38C2F0E94B71D42E050E0C8
:102AA00009C042E050E06AEF7FE38C2F0E94B71D1F
:102AB00043E050E061E77CE3DDC08CE690E090937A
:102AC000AD0E8093AC0E83E690E09093AF0E8093B2
:102AD000AE0E10929F101092B00E81E08093BB0F4B
:102AE0008CE591E09093B5108093B41080E690E06F
:102AF0009093B7108093B61088EA90E09093B91045
:102B00008093B81084E191E09093BB108093BA1049
:102B10008CE19EE7A5E0B0E080930202909303026F
:102B2000A0930402B09305028CED95E0A0E0B0E024
:102B300080939B1090939C10A0939D10B0939E1037
:102B400081E493E0909386108093851089ED91E461
:102B50009093C90F8093C80F84E19FE39093660F11
:102B60008093650F82EC9AE390938B0C80938A0C90
:102B7000D0FD03C043E050E002C042E050E069ED08
:102B800071E48C2FF4D742E050E06FE47BE372C035
:102B9000E0912B0FF0E04091200F28E631E0429FBA
:102BA000C001439F900D1124BF010E94366E7B012E
:102BB0007093AD0E6093AC0E8FEF90E09093AF0EDC
:102BC0008093AE0E8CE291E0E89F9001E99F300D7A
:102BD000F89F300D1124032E000C440B550B60E4BC
:102BE00072E48FE090E00E94496EC901330FAA0B96
:102BF000BB0B80939B1090939C10A0939D10B0935F
:102C00009E1081E493E0909386108093851010923B
:102C1000B00E81E08093BB0F25E03DE0D7010E941C
:102C20002C6E6093020270930302809304029093CF
:102C3000050281E09CE49093C90F8093C80F8DED4D
:102C40009FE39093660F8093650F8EE29AE39093D3
:102C50008B0C80938A0CD0FD03C043E050E002C08F
:102C600042E050E061E07CE48C2F81D742E050E00C
:102C70006FE777E4812F1CC08CEB9CE49093C90F25
:102C80008093C80F8FEE98E49093660F8093650F42
:102C90008CEF97E490938B0C80938A0CD0FD03C04B
:102CA00043E050E002C042E050E06CEB7CE48C2F4B
:102CB0005ED78091CB0E9091CC0E97FD01969595A5
:102CC00087959093CC0E8093CB0E10926B0F109241
:102CD0006C0F10926D0F10926E0F82D560936F0F74
:102CE0007093700F8093710F9093720F80917A00A0
:102CF000846080937A0080917A008D7F80937A003F
:102D000080917A008E7F80937A001092740F1092D7
:102D1000730F1092A60B2091FF0EE22FE295EF7039
:102D2000F0E03197E830F10508F081C18827E856D6
:102D3000FF4F8F4F0C941E6E1092C50F1092C40F50
:102D40001092C30F1092C20F81E08093060279C1E6
:102D50001092C50F1092C40F8091010F80FF54C0D4
:102D600080910E0F90910F0F9093910C8093900C87
:102D700066C01092C50F1092C40F8091010F80FDA4
:102D800009C088E790E09093910C8093900C80EFBD
:102D900090E00CC080910E0F90910F0F9093910CCA
:102DA0008093900C8091100F9091110F90938F0C45
:102DB00080938E0C8091F50E80FF11C01092C30F8E
:102DC0001092C20F8091900C9091910C9093A70C4F
:102DD0008093A60C9093A50C8093A40CD6C010925F
:102DE000A50C1092A40C1092A70C1092A60C109295
:102DF000C30F1092C20FC9C01092C50F1092C40F1A
:102E00008091010F80FD03C084EB90E0ADCF8091F5
:102E10000E0F90910F0F9093910C8093900C8091D6
:102E2000100F9091110F90938F0C80938E0C8091C6
:102E3000120F9091130F90938D0C80938C0C8091B6
:102E4000F50E80FD0EC01092A70C1092A60C1092E9
:102E5000C30F1092C20F81E0809306028093760C1C
:102E6000F0C01092C30F1092C20F8091900C9091FD
:102E7000910C9093A70C8093A60CEDCF1092C50FE8
:102E80001092C40FE8E4F0E0F093910CE093900C02
:102E900060E970E070938F0C60938E0C48ED50E009
:102EA00050938D0C40938C0C80E291E09093C10F75
:102EB0008093C00F3091F50E30FF15C01092C30FF4
:102EC0001092C20FF093A70CE093A60C7093A50C80
:102ED0006093A40C5093A30C4093A20C9093A10C6C
:102EE0008093A00C14C01092A10C1092A00C109210
:102EF000A30C1092A20C1092A50C1092A40C10928C
:102F0000A70C1092A60C1092C30F1092C20F81E072
:102F1000809306028093760C8093620C80934E0C13
:102F200080933A0C8EC01092C50F1092C40F48E7E0
:102F300050E05093910C4093900C80EF90E0909370
:102F40008F0C80938E0C3091F50E30FD0DC01092D9
:102F5000A50C1092A40C1092A70C1092A60C109223
:102F6000C30F1092C20F0CC01092C30F1092C20F69
:102F70005093A70C4093A60C9093A50C8093A40C9F
:102F80008091010F8F7C8093010F81E08093060276
:102F90008093760C8093620C54C01092C50F1092EF
:102FA000C40F6AE570E07093910C6093900C44EB51
:102FB00050E050938F0C40938E0C8EE091E09093F4
:102FC0008D0C80938C0C3091F50E30FD11C0109259
:102FD000A30C1092A20C1092A50C1092A40C1092AB
:102FE000A70C1092A60C1092C30F1092C20F10C023
:102FF0001092C30F1092C20F7093A70C6093A60C8F
:103000005093A50C4093A40C9093A30C8093A20C16
:103010008091010F8F7C8093010F81E080930602E5
:103020008093760C8093620C80934E0C0AC01092B1
:10303000C30F1092C20F84EB90E09093A70C809383
:10304000A60C8091280F86958695837090E081303C
:10305000910521F0029709F05BC029C025E032E21A
:103060003093240C2093230C80E092E29093260C62
:103070008093250C3093200C20931F0C9093220CEE
:103080008093210C30931C0C20931B0C90931E0CEE
:1030900080931D0C3093180C2093170C90931A0CEE
:1030A0008093190C3093BF0F2093BE0F69C02295F7
:1030B0002F70822F90E005975CF58CE391E290935E
:1030C000240C8093230C80E391E29093260C809350
:1030D000250C80E291E29093200C80931F0C84E1F8
:1030E00091E29093220C8093210C83E191E29093E2
:1030F0001C0C80931B0C90931E0C80931D0C9093C2
:10310000180C8093170C90931A0C8093190C3CC0E8
:1031100085E092E29093240C8093230C80E092E26D
:103120009093260C8093250C83EE91E29093200CD3
:1031300080931F0C8EED91E29093220C8093210CD2
:1031400081EC91E290931C0C80931B0C8CEB91E230
:1031500090931E0C80931D0C8FE991E29093180CB4
:103160008093170C8AE991E290931A0C8093190CC2
:1031700089E891E29093BF0F8093BE0F84E891E2BB
:103180009093BD0F8093BC0F61E08091630F9ED23E
:1031900081E08093640F0091020F24E6029F80017A
:1031A0001124012E000C220B330B88E6E82E81E25D
:1031B000F82E44E650E060E070E086E791E20E947D
:1031C00067310091020F84E6089F80011124012ECF
:1031D000000C220B330B9CE4E92E91E2F92E44E61D
:1031E00050E060E070E08AE591E20E941331DF91E7
:1031F000CF911F910F91FF90EF90DF90CF900895A6
:10320000CF92DF92EF92FF920F931F93CF93DF93B2
:103210006C017A018B01C0E0D0E0CE15DF0589F0AA
:10322000D8016D918D01D601ED91FC910190F08155
:10323000E02DC6011995892B11F47E0102C021965B
:10324000ECCFC701DF91CF911F910F91FF90EF90CD
:10325000DF90CF900895FC01918D828D981761F0D9
:10326000828DDF01A80FB11D5D968C91928D9F5FBD
:103270009F73928F90E008958FEF9FEF0895FC0168
:10328000918D828D981731F0828DE80FF11D858D1B
:1032900090E008958FEF9FEF0895FC01918D228DAE
:1032A000892F90E0805C9F4F821B91098F73992733
:1032B00008958BEF90E1F1DF21E0892B09F420E004
:1032C000822F0895FC01848DDF01A80FB11DA35A40
:1032D000BF4F2C91848D90E001968F739927848F36
:1032E000A689B7892C93A089B1898C9180648C932D
:1032F000938D848D981306C00288F389E02D808118
:103300008F7D80830895EF92FF920F931F93CF9349
:10331000DF93EC0181E0888F9B8D8C8D981305C025
:10332000E889F989808185FD23C0F62E0B8D10E098
:103330000F5F1F4F0F731127E02E8C8DE8120BC00B
:103340000FB607FCFACFE889F989808185FFF5CFB0
:10335000CE01B8DFF2CF8B8DFE01E80FF11DE35AED
:10336000FF4FF0820B8FEA89FB898081806207C062
:10337000EE89FF896083E889F98980818064808390
:1033800081E090E0DF91CF911F910F91FF90EF903E
:103390000895CF93DF93EC01888D8823C1F0EA89EB
:1033A000FB89808185FD05C0A889B9898C9186FD3E
:1033B0000EC00FB607FCF5CF808185FFF2CFA8893C
:1033C000B9898C9185FFEDCFCE017CDFE8CFDF910D
:1033D000CF91089580E090E0892B19F06ADF811188
:1033E00025C080E090E0892B41F080E090E0892BBF
:1033F00021F00E94000081111CC080E090E0892B28
:1034000041F080E090E0892B21F00E9400008111C2
:1034100013C080E090E0892BA1F080E090E0892B40
:1034200081F00E94000081110AC008950E940000EE
:10343000D8CF0E940000E1CF0E940000EACF0C9498
:103440000000089590E0FC013197E231F10508F0A9
:103450004EC08827E056FF4F8F4F0C941E6E809110
:1034600080008F7703C0809180008F7D80938000E3
:10347000089580918000877FF9CF84B58F7702C04F
:1034800084B58F7D84BD08958091B0008F7703C08F
:103490008091B0008F7D8093B0000895809190005E
:1034A0008F7707C0809190008F7D03C0809190003E
:1034B000877F8093900008958091A0008F7707C048
:1034C0008091A0008F7D03C08091A000877F8093B2
:1034D000A0000895809120018F7707C0809120017E
:1034E0008F7D03C080912001877F80932001089504
:1034F000089585ED8093BC008091BC0084FDFCCFD5
:103500001092161008954091F00F262F30E0240FEE
:10351000311D21323105DCF4209116102430C9F41C
:10352000FC0180E090E0861758F43091F00F219173
:10353000DC01A253B04FA30FB11D2C930196F3CF22
:103540008091F00F680F6093F00F80E0089581E0A4
:10355000089582E0089508958FEF9FEF08958FEF0B
:103560009FEF08958091CD0F90E0919581959109FD
:103570000895CF93DF931F921F92CDB7DEB7CB0193
:10358000642F49835A83BFDF4981842F5A81952F45
:103590000F900F90DF91CF910895CF93DF931F92FB
:1035A000CDB7DEB7698361E0CE010196ACDF81E083
:1035B00090E00F90DF91CF9108950E94326E1F929C
:1035C0000F920FB60F9211240BB60F922F933F93C9
:1035D0004F935F936F937F938F939F93AF93BF931B
:1035E000EF93FF938BEF90E16DDEFF91EF91BF9131
:1035F000AF919F918F917F916F915F914F913F918B
:103600002F910F900BBE0F900FBE0F901F9018952B
:103610001F920F920FB60F9211240BB60F922F9399
:103620008F939F93EF93FF93E0910B11F0910C1107
:103630008081E0911111F091121182FD12C09081F0
:10364000809114118F5F8F7320911511821751F0A3
:10365000E0911411F0E0E550FF4E958F8093141126
:1036600001C08081FF91EF919F918F912F910F90D9
:103670000BBE0F900FBE0F901F901895CF93DF9346
:10368000282F30E0F901EE57FE4F8491F901EC5DEF
:10369000F84FD491F901E252F94FC491CC2389F04B
:1036A0008111D0DEEC2FF0E0EE0FFF1FEC53F94F4D
:1036B000A591B491EC91ED2381E090E021F480E0BC
:1036C00002C080E090E0DF91CF9108951F93CF93E7
:1036D000DF93282F30E0F901EE57FE4F8491F90176
:1036E000EC5DF84FD491F901E252F94FC491CC232B
:1036F000C1F0162F8111A6DEEC2FF0E0EE0FFF1FB8
:10370000E655F94FA591B4918FB7F894111105C002
:103710009C91ED2FE095E92302C0EC91ED2BEC9309
:103720008FBFDF91CF911F910895CF93DF9390E0EA
:10373000FC01EC5DF84F2491FC01E252F94F8491B9
:10374000882361F190E0880F991FFC01E057F94F41
:10375000C591D491FC01E655F94FA591B491611141
:1037600009C09FB7F8948881209582238883EC91C3
:103770002E230BC0623061F49FB7F8943881822FFA
:10378000809583238883EC912E2B2C939FBF06C0BA
:103790008FB7F894E8812E2B28838FBFDF91CF91CC
:1037A0000895863308F0865390917B00282F287067
:1037B000977F922B90937B008770806480937C002E
:1037C00080917A00806480937A0080917A0086FDEF
:1037D000FCCF809178002091790090E0922B0895A1
:1037E0003FB7F89480913D1090913E10A0913F100A
:1037F000B091401026B5A89B05C02F3F19F0019647
:10380000A11DB11D3FBFBA2FA92F982F8827820F66
:10381000911DA11DB11DBC01CD0142E0660F771FB6
:10382000881F991F4A95D1F708951F920F920FB6DE
:103830000F9211242F933F938F939F93AF93BF9336
:103840008091960B9091970BA091980BB091990B4A
:1038500030913C1023E0230F2D3720F40196A11D59
:10386000B11D05C026E8230F0296A11DB11D2093AE
:103870003C108093960B9093970BA093980BB0936A
:10388000990B80913D1090913E10A0913F10B09106
:1038900040100196A11DB11D80933D1090933E10E4
:1038A000A0933F10B0934010BF91AF919F918F9123
:1038B0003F912F910F900FBE0F901F9018951F9260
:1038C0000F920FB60F9211240BB60F922F933F93C6
:1038D0004F935F936F937F938F939F93AF93BF9318
:1038E000EF93FF93E0911502F09116021995FF9165
:1038F000EF91BF91AF919F918F917F916F915F9168
:103900004F913F912F910F900BBE0F900FBE0F90D4
:103910001F9018951F920F920FB60F9211240BB69D
:103920000F922F933F934F935F936F937F938F9358
:103930009F93AF93BF93EF93FF93E0911302F091A6
:1039400014021995FF91EF91BF91AF919F918F91C3
:103950007F916F915F914F913F912F910F900BBE8F
:103960000F900FBE0F901F9018951F920F920FB6D9
:103970000F9211240BB60F922F933F934F935F93A7
:103980006F937F938F939F93AF93BF93EF93FF9327
:10399000E0910902F0910A021995FF91EF91BF9110
:1039A000AF919F918F917F916F915F914F913F91D7
:1039B0002F910F900BBE0F900FBE0F901F90189578
:1039C0001F920F920FB60F9211240BB60F922F93E6
:1039D0003F934F935F936F937F938F939F93AF9397
:1039E000BF93EF93FF93E0910702F09108021995BE
:1039F000FF91EF91BF91AF919F918F917F916F91C7
:103A00005F914F913F912F910F900BBE0F900FBE82
:103A10000F901F9018951F920F920FB60F921124BE
:103A20000BB60F922F933F934F935F936F937F93B8
:103A30008F939F93AF93BF93EF93FF93E091110206
:103A4000F09112021995FF91EF91BF91AF919F9163
:103A50008F917F916F915F914F913F912F910F9037
:103A60000BBE0F900FBE0F901F9018951F920F92D4
:103A70000FB60F9211240BB60F922F933F934F93D3
:103A80005F936F937F938F939F93AF93BF93EF93C6
:103A9000FF93E0910F02F09110021995FF91EF91C1
:103AA000BF91AF919F918F917F916F915F914F9156
:103AB0003F912F910F900BBE0F900FBE0F901F9054
:103AC00018951F920F920FB60F9211240BB60F92FA
:103AD0002F933F934F935F936F937F938F939F9316
:103AE000AF93BF93EF93FF93E0910D02F0910E021D
:103AF0001995FF91EF91BF91AF919F918F917F9118
:103B00006F915F914F913F912F910F900BBE0F904E
:103B10000FBE0F901F9018951F920F920FB60F9225
:103B200011240BB60F922F933F934F935F936F9394
:103B30007F938F939F93AF93BF93EF93FF93E09106
:103B40000B02F0910C021995FF91EF91BF91AF918B
:103B50009F918F917F916F915F914F913F912F91A5
:103B60000F900BBE0F900FBE0F901F9018958830CE
:103B700008F070C0A82FB0E0AA0FBB1FA95FBD4F0F
:103B800011967C936E9390E0FC013197E730F1053C
:103B9000A0F58827EE54FF4F8F4F0C941E6E809136
:103BA00069008C7F482B40936900E89A08958091C2
:103BB0006900440F551F440F551F837F482B4093C6
:103BC0006900E99A08958091690074E0440F551FD7
:103BD0007A95E1F78F7C482B40936900EA9A089523
:103BE0008091690066E0440F551F6A95E1F78F7375
:103BF000482B40936900EB9A089580916A008C7F6E
:103C0000482B40936A00EC9A089580916A00440F13
:103C1000551F440F551F837F482B40936A00ED9A30
:103C2000089580916A0024E0440F551F2A95E1F71A
:103C30008F7C482B40936A00EE9A089580916A0029
:103C400096E0440F551F9A95E1F78F73482B4093E8
:103C50006A00EF9A08951F920F920FB60F921124E7
:103C60000BB60F922F933F934F935F936F937F9376
:103C70008F939F93AF93BF93EF93FF938091B9007E
:103C8000887F803609F49CC068F5883209F45BC0EF
:103C900090F4803109F454C038F4882309F4F6C054
:103CA000883009F44DC0F5C0883109F44CC0803229
:103CB00009F45DC0EEC0803409F468C048F4803374
:103CC00009F455C0883309F0E4C080931510D8C0BA
:103CD000803509F44FC0883509F45DC0883409F097
:103CE000D8C0D6C0883909F4C7C0A8F4883709F409
:103CF00067C038F4883609F463C0803709F460C0BF
:103D0000C8C0883809F4B8C0803909F45FC0803869
:103D100009F0BFC05BC0803B09F486C038F4803A2C
:103D200009F466C0883A09F47FC0B3C0803C09F446
:103D3000A7C0883C09F4A4C0883B09F48AC0A9C084
:103D400080913B1010C090913A10809139109817D3
:103D500070F5E0913A1081E08E0F80933A10F0E018
:103D6000E75EFF4E80818093BB0085EC86C0809328
:103D700015108EC0E0913A1081E08E0F80933A10BA
:103D80008091BB00F0E0E75EFF4E808390913A1097
:103D9000809139106EC0E0913A1081E08E0F8093CF
:103DA0003A108091BB00F0E0E75EFF4E8083809187
:103DB000181081116DC081E08093171084EA61C0F2
:103DC00083E08093161010921410CFCF80911410BE
:103DD000803208F051C0E091141081E08E0F809382
:103DE00014108091BB00F0E0EC50F04F8083BDCF09
:103DF00085EC8093BC0010921610809114108032D4
:103E000030F4E0911410F0E0EC50F04F108260912B
:103E1000141070E0E091F20FF091F30F84EF9FE047
:103E200019951092141035C084E0809316101092EA
:103E3000F10F1092F00FE091EE0FF091EF0F199546
:103E40008091F00F811105C081E08093F00F1092F6
:103E5000CE0FE091F10F81E08E0F8093F10FF0E033
:103E6000E253F04F80818093BB009091F10F8091DD
:103E7000F00F981708F479CF85E88093BC0009C04B
:103E800085EC8093BC001092161003C010921510A0
:103E900030DBFF91EF91BF91AF919F918F917F9117
:103EA0006F915F914F913F912F910F900BBE0F90AB
:103EB0000FBE0F901F9018954F925F926F927F9256
:103EC0008F929F92AF92BF92CF92DF92EF92FF922A
:103ED0000F931F93CF93DF9300D01F92CDB7DEB720
:103EE0008C018FB7F8942091960B3091970B4091ED
:103EF000980B5091990B29833A834B835C838FBF36
:103F0000F80181899289A389B48949815A816B8199
:103F10007C81481B590B6A0B7B0B858D968DA78D79
:103F2000B0A1481759076A077B0708F4B1C003849A
:103F3000F485E02D4080518062807380D8011F9607
:103F4000ED91FC91509780809180A280B38084187D
:103F50009508A608B70815960D90BC91A02DA5014F
:103F600094010E94E86F28EE33E040E050E00E94A8
:103F7000496EF80185899689A789B08DBA01A90192
:103F8000480F591F6A1F7B1F458B568B678B708F9D
:103F9000C5A0D6A0E7A0F0A4C416D506E606F7068D
:103FA0002CF4C58AD68AE78AF08E0EC0F80181A16A
:103FB00092A1A3A1B4A1481759076A077B0724F46B
:103FC000858B968BA78BB08FF801A381B481A50157
:103FD00094010E94E86F24E630E040E050E00E9447
:103FE000496EF80185899689A789B08D49015A01E2
:103FF000880E991EAA1EBB1E0780F085E02DD801F1
:1040000059964D915D916D917C915C97D301C20160
:10401000841B950BA60BB70B9C01AD01DF010E9421
:10402000E86F2CE93FEF4FEF5FEF0E94496E820E81
:10403000931EA41EB51EC814D904EA04FB0474F030
:10404000F80181A192A1A3A1B4A175016401881610
:104050009906AA06BB0614F46C017D01D8011D96D1
:10406000ED91FC911E97C082D182E282F382F80129
:10407000418E528E638E748E29813A814B815C8190
:1040800051962D933D934D935C93549781E001C0DD
:1040900080E00F900F900F900F90DF91CF911F91C4
:1040A0000F91FF90EF90DF90CF90BF90AF909F90D7
:1040B0008F907F906F905F904F9008954F925F9296
:1040C0006F927F92BF92CF92DF92EF92FF920F9307
:1040D0001F93CF93DF93EC01062FF42EB22E88812D
:1040E000861307C08981841304C08A81821709F46A
:1040F00042C00883F982BA822D8D3E8D4F8D58A122
:1041000060EA76E881E090E00E94796E29013A0148
:1041100010E01C830B832F2D30E0A8EEB3E00E944B
:10412000EE6FA30192010E94496E69017A013E83FC
:104130002D83AB2DB0E0A30192010E94DE6F24E637
:1041400030E040E050E00E94496E38872F83898537
:104150009A85019781F41195019511091C830B83B0
:10416000D194C194D108DE82CD8288279927821B01
:10417000930B98878F83DF91CF911F910F91FF90C1
:10418000EF90DF90CF90BF907F906F905F904F90B7
:104190000895AF92BF92CF92EF920F93CF93DF9398
:1041A000EC015E874D877C876B87388B2F8719A63C
:1041B00019A21AA21BA21CA28FEF90E0A0E0B0E00F
:1041C0008DA39EA3AFA3B8A784E690E0A0E0B0E0E3
:1041D0008D8F9E8FAF8FB8A3B12CBA86A9862C2D58
:1041E0004E2D602FCE016ADF2FB7F8948091960B89
:1041F0009091970BA091980BB091990B2FBF4D8D7B
:104200005E8D6F8D78A1841B950BA60BB70B898BE8
:104210009A8BAB8BBC8BDF91CF910F91EF90CF90AE
:10422000BF90AF9008950895CF93C09149106C2F1F
:10423000809148104BDA6C2F80914710CF9146CA7D
:10424000CF93C09117026C2F809148103FDA6C2FEA
:10425000809147103BDA60E08091EE10CF9136CA32
:10426000CF93C09149106C2F809146102FDA6C2F9C
:1042700080914510CF912ACACF93C09117026C2F1D
:104280008091461023DA6C2F809145101FDA60E090
:104290008091EE10CF911ACA60E08091BC0416DACA
:1042A00060E08091441012DAE7E4F2E180818D7FD2
:1042B0008083089561E08091BC0408DA61E0809118
:1042C000441004DAE7E4F2E180818260808308959B
:1042D00060E08091BD04FAD960E080914310F6D986
:1042E000E7E4F2E180818E7F8083089561E0809130
:1042F000BD04ECD961E080914310E8D9E7E4F2E134
:10430000808181608083089560914910809142107E
:10431000DDC96091170280914210D8D960E0809188
:10432000EE10D4C960E080914110D0C961E0809165
:104330004110CCC96091491080914710C7C9609164
:10434000170280914710C2D960E08091EE10BEC97B
:1043500060E080914310BAD9E7E4F2E18081877F81
:104360008083089561E080914310B0D9E7E4F2E1E1
:104370008081886080830895609149108091451004
:10438000A5C96091170280914510A0D960E0809185
:10439000EE109CC960E08091441098D9E7E4F2E106
:1043A00080818B7F8083089561E0809144108ED955
:1043B000E7E4F2E180818460808308956091491090
:1043C0008091481083C960911702809148107ED96E
:1043D00060E08091EE107AC960E08091BC0476D9EB
:1043E000E7E4F2E180818D7F8083089561E0809130
:1043F000BC046CD9E7E4F2E1808182608083089597
:10440000609149108091461061C9609117028091B6
:1044100046105CD960E08091EE1058C960E0809150
:10442000BD0454D9E7E4F2E180818E7F8083089552
:1044300061E08091BD044AD9E7E4F2E180818160C6
:1044400080830895CF92DF92EF92FF92F89440918B
:10445000670F5091680F6091690F70916A0FC0905B
:10446000B010D090B110E090B210F090B3109A015B
:10447000AB012C193D094E095F09A82FB0E00E943D
:10448000DE6F6093A80C7093A90C8093AA0C909394
:10449000AB0C78942091A80C3091A90C4091AA0CF7
:1044A0005091AB0C60E077E883E993E00E94796E6D
:1044B000C901FF90EF90DF90CF9008959B01AC0170
:1044C0008091280F8076803219F4DA01C90111C079
:1044D000803439F4DA01C901B695A7959795879587
:1044E0000FC08036B1F4A3E0B0E00E94DE6FDC01C3
:1044F000CB0122E0B695A795979587952A95D1F798
:1045000080939B1090939C10A0939D10B0939E104D
:10451000089510929B1010929C1010929D10109272
:104520009E100895809106128823A9F1F894809135
:104530008B1090918C10A0918D10B0918E104091A5
:104540008710509188106091891070918A10841B97
:10455000950BA60BB70B8093A80C9093A90CA09376
:10456000AA0CB093AB0C78942091A80C3091A90CB4
:104570004091AA0C5091AB0C60E077E883E993E09E
:104580000E94796E203586E4380744F08091071246
:1045900090910812089580E090E00895C90108956F
:1045A000E0915C0FF0915D0FEE0FFF1FE455F34FAC
:1045B0007183608380915C0F90915D0F8F3F9105B7
:1045C00051F410925D0F10925C0F809147128F7B17
:1045D00080934712089580915C0F90915D0F019632
:1045E00090935D0F80935C0F08952F923F924F92AE
:1045F0005F926F927F928F929F92AF92BF92CF9273
:10460000DF92EF92FF920F931F93CF93DF93CDB77B
:10461000DEB7C152D1400FB6F894DEBF0FBECDBF9A
:10462000982FE09101024E2F50E0FA013197E830C7
:10463000F10508F0A1C28827E754FF4F8F4F0C9473
:104640001E6EC090CF0E6090D00EE090D10EF09014
:10465000D20E3090D30E4090D40E0091D50E109112
:10466000D60E512C9DC2992309F48BC286EC97E09B
:104670000E94DD550BED1EE0D8018D918D010E9449
:10468000E755BEE00F3D1B07B8F30FED1EE08AE0D3
:10469000F82EF00EF80181918F010E94B65580E24C
:1046A0000E94F655F012F6CF0E94735509EE1EE0F7
:1046B000D8018D918D010E94E755BEE0073F1B0791
:1046C000B9F707EF1EE0F801819191918F010E94E7
:1046D0000156FEE00F3F1F07B0F30FEF1EE0D801B9
:1046E0008D918D010E94E755BFE00A301B07B8F39A
:1046F00080910A0F90910B0F0E9401560CE01FE071
:10470000F80181918F010E94E755FFE00B311F07EF
:10471000B8F34EC3C090BF0E6090C00EE090C10EC3
:10472000F090C20E3090C30E4090C40E0091C50EA2
:104730001091C60EBAE25B2E33C2992309F425C24A
:1047400083EE97E00E94DD55C0901C0FD0901D0FA6
:104750000D2C000CEE08FF08F7FE0CC08DE20E9445
:10476000F65566277727CB016C197D098E099F09BD
:104770004AE003C04AE0C701B6010E9476550E9494
:1047800073550EE11FE0D8018D918D010E94E75510
:10479000BFE003331B07B8F303E31FE0A4E0FA2EE6
:1047A000F00EF80181918F010E94B65580E20E94BF
:1047B000F655F012F6CF0E94735507E31FE0F4E0C0
:1047C000FF2EF00ED8018D918D010E94B65580E22A
:1047D0000E94F655F012F6CF0E9473550BE31FE0CE
:1047E000EAE0FE2EF00EF80181918F010E94B6558D
:1047F00080E20E94F655F012F6CF0E947355809128
:10480000450F0E94E75506E41FE076E0F72EF00E14
:10481000D8018D918D010E94B65580E20E94F65517
:10482000F012F6CF0E9473550CE41FE0F80181915D
:104830008F010E94E755FFE00C351F07B9F7B8C29A
:10484000C0909A0B60909B0BE0909C0BF0909D0B9E
:1048500030909E0B40909F0B0091A00B1091A10BEC
:1048600067E4562E9DC1992309F493C186E098E030
:104870000E94DD550EE712E1D8018D918D010E9455
:10488000E755B2E10D381B07B8F30DE812E156E029
:10489000F52EF00EF80181918F010E94B65580E24D
:1048A0000E94F655F012F6CF0E94735503E912E10B
:1048B00046E0F42EF00ED8018D918D010E94B65580
:1048C00080E20E94F655F012F6CF0E94735509E976
:1048D00012E139E0F32EF00EF80181918F010E9470
:1048E000B65580E20E94F655F012F6CF0E9473553D
:1048F00002EA12E129E0F22EF00ED8018D918D012D
:104900000E94B65580E20E94F655F012F6CF0E9442
:1049100073550BEA12E1F80181918F010E94E7556E
:10492000F2E10E3B1F07B9F743C2992309F435C1E1
:1049300085E198E00E94DD5524E0233039F02430F1
:1049400041F0223049F008E51BE008C004E41BE018
:1049500005C00AE31BE002C00EE41BE078018AE018
:10496000E80EF11CD8018D918D01CF5DDE4F2883BB
:10497000C152D1400E94B65580E20E94F655CF5DEB
:10498000DE4F2881C152D1400E151F0559F70E94F4
:104990007355CF5DDE4F2881C152D140215069F659
:1049A00093E0F92EB2E0FB1649F0E3E0FE1619F0B1
:1049B0000AE61BE005C002E61BE002C006E61BE0BB
:1049C0006801F4E0CF0ED11CD8018D918D010E94B9
:1049D000B65580E20E94F6550C151D05A9F70E94F8
:1049E0007355FA94F110DECF0EE61BE0F8018191C9
:1049F0008F010E94E755FBE00A371F07B9F7D8C1BE
:104A0000992399F0C090D70A6090D80AE090D90A0B
:104A1000F090DA0A3090DB0A4090DC0A0091DD0A5F
:104A20001091DE0A89E7582EBBC06091D90A7091B7
:104A3000DA0ADE01119640E050E03A2F2B2FCA012E
:104A400057FD0796E3E095958795EA95E1F79195EF
:104A500081959109FC013796EE0FFF1FE60FF71FB6
:104A6000CA01877099270190F081E02DE80FF91FA6
:104A700080818D934F5F5F4F4034510501F7E09186
:104A8000DB0AF091DC0A8E010F5B1F4F7F0180E192
:104A9000E80EF11C84E6C82ED12C81919191B601CB
:104AA0000E94366ED8016D938D01EE15FF05A9F7B2
:104AB0008091DD0A9091DE0AFC017096DE01A75B11
:104AC000BF4F329740814D93E817F907D1F76091B6
:104AD000CD0A7091CE0ADE01AF5ABF4F40E050E0E0
:104AE000CA0157FD0796E3E095958795EA95E1F7AA
:104AF000919581959109FC013796EE0FFF1FE60F06
:104B0000F71FCA01877099270190F081E02DE80F07
:104B1000F91F80818D934F5F5F4F4034510501F73E
:104B20000091CF0A1091D00AFE01EF56FF4F7E018F
:104B3000B9E9EB0EF11C74E6C72ED12CD8018D918A
:104B40009D918D01B6010E94366E6193EE15FF05B1
:104B5000A9F7A091D10AB091D20A5096CE018F55F3
:104B60009F4F12974C914193E817F907D1F740EA0C
:104B700050E0632F722F18C18FE697E00E94DD5539
:104B800017C1512C2BED3EE00BC0512C2CE13FE026
:104B900007C0512C2EE732E103C0512C2AE33BE041
:104BA00080910002882309F4F2C0992309F4A3C07C
:104BB000852D90E08555984F0E94DD550E947355D4
:104BC000812C912C712CD12C861497040CF046C0AA
:104BD000F801B0800E5F1F4FF3E6FB1558F080E23E
:104BE00090E00E94265589E08B1520F080E290E04D
:104BF0000E9426558B2D0E94B65580E290E00E94BF
:104C00002655A12CB12CAC14BD04FCF4D701ED91B8
:104C1000FC91EA0DFB1D2080B3E6B21558F080E24E
:104C200090E00E942655E9E0E21520F080E290E055
:104C30000E942655822D0E94B65580E290E00E9487
:104C40002655FFEFAF1ABF0ADECF0E9473558FEFD4
:104C5000881A980AA2E0EA0EF11CB6CF8AE697E01D
:104C60000E94BC55032D142DE12CF12CEC14FD04F5
:104C700054F5F801819191918F0164E670E00E94F2
:104C8000366EB62E6436A0F480E290E0CF5DDE4F43
:104C90006883C152D1400E942655CF5DDE4F2881E6
:104CA000C152D1402A3020F480E290E00E94265583
:104CB0008B2D0E94B65580E290E00E942655FFEFB2
:104CC000EF1AFF0AD3CF0E94735589E7581270C0BC
:104CD000C090CB0A6090CC0AE090CD0AF090CE0A4A
:104CE0003090CF0A4090D00A0091D10A1091D20A98
:104CF00064E8562E5DCFDE01119620E030E06D01B4
:104D0000C90137FD0F9644E0959587954A95E1F7DF
:104D1000919581959109FC013F96EE0FFF1FEE0DD5
:104D2000FF1DC9018F7099270190F081E02DE80FD8
:104D3000F91F80818D932F5F3F4F2115E1E03E07E2
:104D4000F9F6E32DF42D9E012F5F3E4F7F0180E2A7
:104D5000E80EF11C84E6A82EB12C81919191B50149
:104D60000E94366ED9016D939D01EE15FF05A9F7DE
:104D7000F801B096DE01AF5EBE4F329780818D9311
:104D8000E017F107D1F740E251E0B6010DC0F9019B
:104D9000BE016F5F7F4FDB0180E4860F91919D9391
:104DA0008A13FCCF40E450E08BEF90E10E940019A1
:104DB000CF5DDE4F0FB6F894DEBF0FBECDBFDF91E3
:104DC000CF911F910F91FF90EF90DF90CF90BF9008
:104DD000AF909F908F907F906F905F904F903F909B
:104DE0002F9008958F929F92AF92BF92CF92DF92B1
:104DF000EF92FF920F931F93CF93DF931F921F9217
:104E0000CDB7DEB70DB71EB72DB73EB72352310968
:104E10000FB6F8943EBF0FBE2DBFEDB7FEB731966B
:104E20008091581090915910A0915A10B0915B1038
:104E30000097A105B10511F410924D120196A11D24
:104E4000B11D8093581090935910A0935A10B093AD
:104E50005B1080910612309148122091481290E028
:104E6000919581959109832780789927822780934E
:104E7000481280914D1280838091471281838091E6
:104E8000491282838091341290913512092E000CC0
:104E9000AA0BBB0B4C015D0123E0B694A794979439
:104EA00087942A95D1F7AC01BD0176956795579502
:104EB0004795840E951EA61EB71EAC01BD0126E0C7
:104EC00076956795579547952A95D1F7840E951E47
:104ED000A61EB71EAC01BD013CE0769567955795BF
:104EE00047953A95D1F7840E951EA61EB71EAC01C4
:104EF000BD012DE076956795579547952A95D1F791
:104F0000840E951EA61EB71EAC01BD013AE0769533
:104F10006795579547953A95D1F7841A950AA60A49
:104F2000B70AAD0166277727841A950AA60AB70A39
:104F30007501640154E1F694E794D794C7945A95A7
:104F4000D1F78C0C9D1CAE1CBF1C66E0B694A794D8
:104F5000979487946A95D1F76C017D013CE1C30E6B
:104F6000D11CE11CF11CA4E6B0E0A50194010E9453
:104F7000DE6FA7019601261B370B480B590BDA0190
:104F8000C90177E0B695A795979587957A95D1F75A
:104F9000880E991EAA1EBB1E838280910F129091CB
:104FA0001012A0911112B0911212B595A795979574
:104FB0008795848380912A12885D8583809126124B
:104FC000885D868380911F12878380913712808746
:104FD00080912412818780913B12828780913E12BA
:104FE000838780913C1284879091071280910812E8
:104FF0009587868780913A128787108A8091391227
:10500000818B80912312828B80914012838B8091BF
:105010004A1290914B1264E670E00E94656E648BB8
:1050200080912012858B80913812868B8091151289
:10503000878B80914E1290914F12808F80914E12EB
:1050400090914F12918F2091F6123091F712211505
:10505000310511F42AEF32E1CE010196821B930B48
:105060009093531280935212828F938F80913D12AE
:10507000848F80914812858F80912512868F909120
:10508000211280912212978F80A38091421281A3D6
:1050900080914D12837082A343E250E0BF018BEFF9
:1050A00090E10E9400190FB6F8941EBF0FBE0DBF0D
:1050B0000F900F90DF91CF911F910F91FF90EF9084
:1050C000DF90CF90BF90AF909F908F9008951F92E8
:1050D0000F920FB60F9211240BB60F922F933F939E
:1050E0004F935F938F939F93EF93FF93809157100C
:1050F000E0914F10F0915010882319F190915110C8
:105100008081282F30E0892F90E080959095822330
:105110009323808340918400509185002091551005
:10512000309156108091C90A9091CA0A840F951F38
:10513000821B930B90938B0080938A0010925710E0
:105140001AC0809151109081892B808380918400B6
:10515000909185002091C50A3091C60A820F931F55
:1051600090938B0080938A003093561020935510B3
:1051700081E080935710FF91EF919F918F915F9104
:105180004F913F912F910F900BBE0F900FBE0F903C
:105190001F9018951F920F920FB60F9211240BB605
:1051A0000F922F933F934F935F938F939F93EF9320
:1051B000FF9380915410E0914C10F0914D10882392
:1051C00019F190914E108081282F30E0892F90E0C6
:1051D0008095909582239323808340918400509101
:1051E0008500209152103091531080914A10909177
:1051F0004B10840F951F821B930B90938900809313
:105200008800109254101AC080914E109081892B02
:1052100080838091840090918500209102123091CA
:105220000312820F931F909389008093880030931C
:1052300053102093521081E080935410FF91EF910E
:105240009F918F915F914F913F912F910F900BBE46
:105250000F900FBE0F901F9018958091ED108F5FEB
:105260008093ED100895CF93C09175108C2F0E94FC
:10527000D11B9093C30A8093C20A8C2F0E94D11B2A
:105280009093C30A8093C20A9C01235031092B3F9B
:10529000334030F080917D108F5F80937D1006C089
:1052A00090930E1280930D1210927D1020910A0F90
:1052B00030910B0FA0910D12B0910E120E94266E2C
:1052C000DC01CB012AE0B695A795979587952A959D
:1052D000D1F7092E000CAA0BBB0B80930F129093F1
:1052E0001012A0931112B0931212CF910895AF92A1
:1052F000BF92CF92DF92EF92FF920F931F93CF93C3
:10530000DF9380E090E00E947A39823029F062E0F9
:1053100080E090E00E94783981E090E00E947A3944
:105320006091CF0E861721F081E090E00E947839DD
:1053300082E090E00E947A396091D00E861721F0C9
:1053400082E090E00E947839C3E0D0E08E01035003
:105350001109CE010E947A39980117FF02C0215F1E
:105360003F4FA4E035952795AA95E1F73195219512
:105370003109215F3F4F220F331FE091D10EF09191
:10538000D20EE20FF31F0F7011270190F081E02D74
:10539000E00FF11F6081861719F0CE010E94783965
:1053A0002196C33081E0D80789F600E010E0C3E021
:1053B000D1E0F4E6EF2EF12CCE010E947A39282FAD
:1053C000E091D30EF091D40EE00FF11F8081918116
:1053D000B7010E94366E261719F0CE010E94783967
:1053E00021960E5F1F4FC33191E0D90729F700E0E6
:1053F00010E0C3E1D1E0CE010E947A39E091D50EF0
:10540000F091D60EE00FF11F6081718190E0861758
:10541000970719F0CE010E94783921960E5F1F4F31
:10542000C332E1E0DE0739F70BED1EE0C3E2D1E065
:10543000CE010E947A39F80161918F01861719F027
:10544000CE010E9478392196C336F1E0DF0781F75B
:1054500083E691E00E947A396091BF0E861721F0B1
:1054600083E691E00E94783984E691E00E947A39DF
:105470006091C00E861721F084E691E00E94783991
:1054800005E611E0E801C556D140C8010E947A390D
:105490009E01D7FF02C0215F3F4F74E035952795ED
:1054A0007A95E1F7319521953109215F3F4F220F20
:1054B000331FE091C10EF091C20EE20FF31FCF70C7
:1054C000DD2720813181C20FD31F6881861719F033
:1054D000C8010E9478390F5F1F4F053682E0180718
:1054E00089F600E010E0C5E6D2E064E6E62EF12C95
:1054F000CE010E947A39282FE091C30EF091C40E9C
:10550000E00FF11F80819181B7010E94366E26174E
:1055100019F0CE010E94783921960E5F1F4FC537D2
:1055200092E0D90729F700E010E0C5E7D2E0CE010C
:105530000E947A39E091C50EF091C60EE00FF11F7E
:105540006081718190E08617970719F0CE010E9463
:10555000783921960E5F1F4FC538E2E0DE0739F734
:105560000CE11FE0C5E8D2E0CE010E947A39F801D3
:1055700061918F01861719F0CE010E94783921962A
:10558000C53CF2E0DF0781F785EC92E00E947A39B2
:1055900060919A0B861721F085EC92E00E94783991
:1055A00086EC92E00E947A3960919B0B861721F07D
:1055B00086EC92E00E94783907EC12E0E801C75CC3
:1055C000D240C8010E947A399E01D7FF02C0215FF4
:1055D0003F4F44E0359527954A95E1F73195219560
:1055E0003109215F3F4F220F331FE0919C0BF09157
:1055F0009D0BE20FF31FCF70DD2720813181C20F99
:10560000D31F6881861719F0C8010E9478390F5F8F
:105610001F4F073C83E0180789F600E010E0C7EC55
:10562000D3E034E6E32EF12CCE010E947A39282F04
:10563000E0919E0BF0919F0BE00FF11F8081918113
:10564000B7010E94366E261719F0CE010E947839F4
:1056500021960E5F1F4FC73D93E0D90729F700E061
:1056600010E0C7EDD3E0CE010E947A39E091A00BA3
:10567000F091A10BE00FF11F6081718190E086171E
:10568000970719F0CE010E94783921960E5F1F4FBF
:10569000C73EE3E0DE0739F70EE712E1C7EED3E0DD
:1056A000CE010E947A39F80161918F01861719F0B5
:1056B000CE010E9478392196C732F4E0DF0781F7E6
:1056C0000AE31BE0C7E2D4E0CE010E947A39F80178
:1056D00061918F01861719F0CE010E9478392196C9
:1056E000C736F4E0DF0781F787E694E00E947A3955
:1056F0006091D70A861721F087E694E00E947839F6
:1057000088E694E00E947A396091D80A861721F0E1
:1057100088E694E00E94783989EB94E00E947A3917
:105720006091CB0A861721F089EB94E00E947839CA
:105730008AEB94E00E947A396091CC0A861721F0B6
:105740008AEB94E00E94783900E010E0780185E46B
:10575000E81A8BEFF80A580197E9A91A9BEFB90AE2
:10576000C5010E947A39980117FF02C0295F3F4F97
:1057700093E0359527959A95E1F731952195310973
:10578000295F3F4FE901CC0FDD1F6801E7E0CE2222
:10579000DD24E091D90AF091DA0AEC0FFD1F0190A7
:1057A000F081E02DEC0DFD1D6081861719F0C5011B
:1057B0000E947839C7010E947A392091CD0A309130
:1057C000CE0AC20FD31FE881F981EC0DFD1D608167
:1057D000861719F0C7010E9478390F5F1F4F0034F8
:1057E000110509F0B3CF00E010E0C9EAD4E084E687
:1057F000E82EF12C6E01F2E5CF0ED11CCE010E94F5
:105800007A39282FE091DB0AF091DC0AE00FF11FD2
:1058100080819181B7010E94366E261719F0CE0162
:105820000E947839C6010E947A39282FE091CF0A68
:10583000F091D00AE00FF11F80819181B7010E94A1
:10584000366E261719F0C6010E94783921960E5F30
:105850001F4FC13B84E0D80769F600E010E0C1EBC0
:10586000D4E07E0192E5E90EF11CCE010E947A3966
:10587000E091DD0AF091DE0AE00FF11F6081718195
:1058800090E08617970719F0CE010E947839C7017A
:105890000E947A39E091D10AF091D20AE00FF11F0B
:1058A00060817181282F30E02617370719F0C70172
:1058B0000E94783921960E5F1F4FC93BE4E0DE0756
:1058C00081F6DF91CF911F910F91FF90EF90DF90C4
:1058D000CF90BF90AF9008951F93CF93DF93CDB734
:1058E000DEB728970FB6F894DEBF0FBECDBF80910C
:1058F000FF0E837090E08130910539F08230910580
:1059000029F1892B09F01CC106C0809107129091E2
:105910000812892B51F428960FB6F894DEBF0FBEFB
:10592000CDBFDF91CF911F919ECC2091610F8091CF
:10593000620F281709F44CC08091620F30E090E0AC
:1059400001962817390709F098C042C080910712C4
:1059500090910812892BF9F22091610F8091620FCA
:10596000281709F46DC08091620F30E090E0019635
:105970002817390709F464C0A0918010B0918110F4
:10598000B0930E12A0930D1220910A0F30910B0FBD
:105990000E94266EDC01CB012AE0B695A79597956B
:1059A00087952A95D1F7092E000CAA0BBB0B809383
:1059B0000F1290931012A0931112B09312128091B3
:1059C000620F8093610F8FEF93E0A0E0B0E0B0C072
:1059D00010917510812F0E94D11B9093C30A809360
:1059E000C20A812F0E94D11B9093C30A8093C20ADE
:1059F0009C01235031092B3F3340C8F5092E000C80
:105A0000AA0BBB0B409180105091811060918210C5
:105A100070918310840F951FA61FB71F809380106D
:105A200090938110A0938210B093831080917E1088
:105A300090917F10019690937F1080937E1080C08C
:105A400010917510812F0E94D11B9093C30A8093EF
:105A5000C20A812F0E94D11B9093C30A8093C20A6D
:105A60009C01235031092B3F334008F450C08091F2
:105A70007D108F5F80937D1063C020917E103091E8
:105A80007F1040E050E06091801070918110809113
:105A90008210909183100E94496E29833A834B8330
:105AA0005C836D837E838F839887A981BA81B0934D
:105AB0000E12A0930D1220910A0F30910B0F0E942D
:105AC000266EDC01CB013AE0B695A79597958795B0
:105AD0003A95D1F7092E000CAA0BBB0B80930F123D
